:100000000C9462000C948A000C948A000C948A0070
:100010000C948A000C948A000C948A000C948A0038
:100020000C948A000C948A000C948A000C9480072B
:100030000C948A000C948A000C948A000C948A0018
:100040000C94C3050C948A000C9433060C940D0692
:100050000C948A000C948A000C948A000C948A00F8
:100060000C9465060C948A00000000002400270010
:100070002A0000000000250028002B0000000000DE
:1000800023002600290004040404040404040202DA
:100090000202020203030303030301020408102007
:1000A0004080010204081020010204081020000012
:1000B0000008000201000003040700000000000027
:1000C00000003C0811241FBECFEFD8E0DEBFCDBF3B
:1000D00011E0A0E0B1E0ECE8F7E102C005900D927C
:1000E000A23CB107D9F723E0A2ECB1E001C01D9218
:1000F000AC34B207E1F710E0C2E6D0E004C02197CB
:10010000FE010E94BE0BC136D107C9F70E94C0088C
:100110000C94C40B0C9400008F929F92AF92BF92EC
:10012000FF920F931F93CF93DF93F0903D032BE04B
:100130002F1508F44CC020913F0308E512E0021B84
:10014000110927FD1395000F111F000F111F20919A
:100150003E03C8E8D0E0C21BD10927FDD395CC0FE0
:10016000DD1FCC0FDD1F4E010D2E000CAA08BB08B1
:100170009801012E000C440B550B281939094A0926
:100180005B09DC010E94790B24EB30E040E050E099
:100190000E944F0B820E931EA41EB51E8C169D0648
:1001A0002CF0E801801691060CF4E4012297CC0FA4
:1001B000DD1F2FB7F8948F2D90E0FC01EE0FFF1F8D
:1001C000E80FF91FE85EFC4FD283C1832FBFDF9198
:1001D000CF911F910F91FF90BF90AF909F908F9004
:1001E0000895833081F028F4813099F08230A9F0AD
:1001F00008958730A9F08830C9F08430B1F4809137
:1002000080008F7D03C0809180008F778093800075
:10021000089584B58F7784BD089584B58F7DFBCF15
:100220008091B0008F778093B00008958091B000E6
:100230008F7DF9CFCF93DF93282F30E0F901E2557E
:10024000FF4F8491F901E656FF4FD491F901EA5727
:10025000FF4FC491CC23A1F081110E94F100EC2F3B
:10026000F0E0EE0FFF1FE458FF4FA591B491EC9121
:10027000ED2381E090E009F480E0DF91CF910895D3
:1002800080E090E0FACF1F93CF93DF93282F30E0E8
:10029000F901E255FF4F8491F901E656FF4FD491E1
:1002A000F901EA57FF4FC491CC23A9F0162F811111
:1002B0000E94F100EC2FF0E0EE0FFF1FEE58FF4F11
:1002C000A591B4918FB7F894EC91111108C0D09515
:1002D000DE23DC938FBFDF91CF911F910895DE2B3A
:1002E000F8CF3FB7F89480916B0290916C02A09187
:1002F0006D02B0916E0226B5A89B05C02F3F19F084
:100300000196A11DB11D3FBFBA2FA92F982F882795
:10031000BC01CD01620F711D811D911D42E0660F70
:10032000771F881F991F4A95D1F708958F929F9242
:10033000AF92BF92CF92DF92EF92FF924B015C019E
:100340000E9471016B017C010E9471016C197D0991
:100350008E099F09683E734081059105A8F321E04D
:10036000821A9108A108B10888EEC80E83E0D81E51
:10037000E11CF11C81149104A104B10429F7FF9040
:10038000EF90DF90CF90BF90AF909F908F900895A7
:10039000AF92BF92CF92DF92EF92FF920F931F9393
:1003A000CF93DF936C017B018B01040F151FEB01D1
:1003B0005E01AE18BF08C017D10759F06991D60188
:1003C000ED91FC910190F081E02DC6010995892BFA
:1003D00079F7C501DF91CF911F910F91FF90EF90B9
:1003E000DF90CF90BF90AF900895FC01538D448D66
:1003F000252F30E0842F90E0821B930B541710F0D0
:10040000CF96089501970895FC01918D828D9817DC
:1004100061F0A28DAE0FBF2FB11D5D968C91928DB4
:100420009F5F9F73928F90E008958FEF9FEF0895E5
:10043000FC01918D828D981731F0828DE80FF11DAE
:10044000858D90E008958FEF9FEF0895FC01918DC9
:10045000228D892F90E0805C9F4F821B91098F73C2
:10046000992708958FE692E00E94260221E0892BC9
:1004700009F420E0822F089580E090E0892B29F094
:100480000E94320281110C9400000895FC01A48D99
:10049000A80FB92FB11DA35ABF4F2C91848D90E0A6
:1004A00001968F739927848FA689B7892C93A08989
:1004B000B1898C91837080648C93938D848D981313
:1004C00006C00288F389E02D80818F7D80830895A6
:1004D000EF92FF920F931F93CF93DF93EC0181E094
:1004E000888F9B8D8C8D98131AC0E889F98980813B
:1004F00085FF15C09FB7F894EE89FF896083E8896E
:10050000F98980818370806480839FBF81E090E05F
:10051000DF91CF911F910F91FF90EF900895F62EEC
:100520000B8D10E00F5F1F4F0F731127E02E8C8D86
:100530008E110CC00FB607FCFACFE889F9898081CB
:1005400085FFF5CFCE010E944602F1CFEB8DEC0F77
:10055000FD2FF11DE35AFF4FF0829FB7F8940B8FE8
:10056000EA89FB8980818062CFCFCF93DF93EC0152
:10057000888D8823B9F0AA89BB89E889F9898C918B
:1005800085FD03C0808186FD0DC00FB607FCF7CF47
:100590008C9185FFF2CF808185FFEDCFCE010E9447
:1005A0004602E9CFDF91CF91089508951F93CF932D
:1005B000DF93C1E0C093C401882399F1D091B800C2
:1005C0001091BA008091BC008A7B8093BC0060E0EF
:1005D00082E10E94430160E083E10E9443011092A6
:1005E0002E02C0932D021092080261E082E10E9467
:1005F000430161E083E10E9443018091B9008E7F55
:100600008093B9008091B9008D7F8093B90088E410
:100610008093B80085E48093BC001093BA00D09317
:10062000B800DF91CF911F9108952091E501260F29
:100630003327331F21323105ECF420912E02FC01C7
:1006400090E080E0243069F082E00895A091E50117
:100650002191AC014B535E4FA40FB52FB11D2C93CC
:100660000196861798F38091E501680F6093E50184
:1006700080E0089581E0089508958FEF9FEF089539
:100680008FEF9FEF08958091C30190E09195819540
:1006900091090895CF92DF92EF92FF920F931F93EB
:1006A000CF93DF937C01CB018A0120913402222376
:1006B00089F0EB016B01C40ED51ECC15DD0569F088
:1006C0006991D701ED91FC910190F081E02DC70176
:1006D0000995F3CF642F0E941503C801DF91CF91D4
:1006E0001F910F91FF90EF90DF90CF900895CF93DF
:1006F000DF931F92CDB7DEB76983209134022223A6
:10070000F9F020915702203258F021E030E0FC014E
:100710003383228390E080E00F90DF91CF910895A2
:1007200080913502E82FF0E0EA5CFD4F99819083DB
:100730008F5F809335028093570281E090E0ECCF89
:1007400061E0CE0101960E941503F7CFCF92DF92B0
:10075000EF92FF920F931F93CF93DF93FC01C4811D
:1007600021E020933402C093560210923502109279
:1007700057028385682B8CE093E00E947703D09129
:100780005702D13208F092C00E9471016B017C01C6
:1007900080912E02811165C082E080932E0281E05B
:1007A00080932D028FEF80932C0210922B02D09316
:1007B0002A02A6E3B2E0EAE0F2E080E0D81385C0C6
:1007C0001092090280910902CC0FC82BC093090234
:1007D00080910802813009F07CC0109208020E94CA
:1007E00071016B017C01809109028093BB008091B3
:1007F000300290913102A0913202B0913302892BE4
:100800008A2B8B2B99F00E9471010091300210917C
:10081000310220913202309133026C197D098E0928
:100820009F090617170728073907E0F18091BC00D8
:1008300083FDD9CF85EC8093BC000E9471016B01D0
:100840007C0180912E02823009F445C080912C02F7
:100850008F3F61F180912C02803241F180912C0216
:1008600025C08091300290913102A0913202B09166
:100870003302892B8A2B8B2B09F48ACF0E947101BA
:1008800000913002109131022091320230913302F6
:100890006C197D098E099F09061717072807390764
:1008A00008F076CF80912F020E94D6021092350276
:1008B0001092570210923402DF91CF911F910F9145
:1008C000FF90EF90DF90CF9008959D9191938F5F6F
:1008D00075CF85EEB0CF8091300290913102A0911A
:1008E0003202B0913302892B8A2B8B2B09F4A9CFCA
:1008F0000E94710100913002109131022091320268
:10090000309133026C197D098E099F09061717076C
:100910002807390708F095CFC5CF90E080E008950B
:100920000F931F93CF930AE512E0C5E08C2F0E942E
:100930001A0121E030E0892B11F030E020E0F801CD
:10094000219331938F01CF5FCB3081F7CF911F91EE
:100950000F9108958F929F92AF92BF920F931F9322
:10096000CF93DF93CDB7DEB7A1970FB6F894DEBF74
:100970000FBECDBF19A2423008F44AE08E010F5DD0
:100980001F4F842E912CB12CA12CA50194010E9403
:10099000810BE62FB901CA01EA3044F5E05DD801C8
:1009A000EE938D01232B242B252B79F790E080E00B
:1009B000109769F0FD0101900020E9F73197AF0130
:1009C0004A1B5B0BBD0180E493E00E94C801A19625
:1009D0000FB6F894DEBF0FBECDBFDF91CF911F9150
:1009E0000F91BF90AF909F908F900895E95CD7CF03
:1009F000FC0101900020E9F73197AF01481B590B2A
:100A0000BC0180E493E00C94C8010F931F93CF9333
:100A10008C01C62F0E94A6036C2F6460C8010E943F
:100A2000A6036C2F6B7FC8010E94A60383EC90E0A5
:100A30000197F1F7CF911F910F9108950F931F9395
:100A4000CF93DF938C01D62FC42F607F642B0E943D
:100A5000050580E1D89FB00111246C2BC801DF91FE
:100A6000CF911F910F910C940505CF93DF93CDB7D4
:100A7000DEB728970FB6F894DEBF0FBECDBF98E063
:100A8000E2E0F1E0DE01119601900D929A95E1F716
:100A900090914803961710F46FEF690F262F30E0FE
:100AA000220F331F41E050E04C0F5D1F240F351F14
:100AB000F9016081680F606840E080E493E0289667
:100AC0000FB6F894DEBF0FBECDBFDF91CF910C946F
:100AD0001E0541E00E941E0581E090E00895CF923E
:100AE000DF92EF92FF926B017C0141E06DE280E4C6
:100AF00093E00E941E0566277727CB016C197D09BC
:100B00008E099F094AE00E94AA040196FF90EF9087
:100B1000DF90CF90089585ED8093BC0080913002E6
:100B200090913102A0913202B09133020796A11D3B
:100B3000B11D23E0B695A795979587952A95D1F78E
:100B40002091BC0024FD03C010922E020895409114
:100B50003002509131026091320270913302452B84
:100B6000462B472B69F30097A105B10541F02AE216
:100B70002A95F1F700C00197A109B109E1CF809151
:100B80002F020C94D6021F920F920FB60F921124CF
:100B90002F933F938F939F93AF93BF93809167025F
:100BA00090916802A0916902B0916A023091660248
:100BB00023E0230F2D3758F50196A11DB11D209379
:100BC00066028093670290936802A0936902B093D3
:100BD0006A0280916B0290916C02A0916D02B091BB
:100BE0006E020196A11DB11D80936B0290936C0261
:100BF000A0936D02B0936E02BF91AF919F918F91C0
:100C00003F912F910F900FBE0F901F90189526E8DF
:100C1000230F0296A11DB11DD2CF1F920F920FB6C6
:100C20000F9211242F933F934F935F936F937F9372
:100C30008F939F93AF93BF93EF93FF938FE692E0D1
:100C40000E944602FF91EF91BF91AF919F918F91CA
:100C50007F916F915F914F913F912F910F900FBEB8
:100C60000F901F9018951F920F920FB60F9211249C
:100C70002F938F939F93EF93FF93E0917F02F091D7
:100C800080028081E0918502F091860282FD1BC086
:100C90009081809188028F5F8F73209189028217E3
:100CA00041F0E0918802F0E0E159FD4F958F80938B
:100CB0008802FF91EF919F918F912F910F900FBE1E
:100CC0000F901F9018958081F4CF1F920F920FB64E
:100CD0000F9211242F933F934F935F936F937F93C2
:100CE0008F939F93AF93BF93EF93FF938091B9003E
:100CF000887F803609F44AC0F0F5883209F4A5C02F
:100D000018F5803109F499C0B8F4882309F4F5C0C6
:100D1000883009F492C0FF91EF91BF91AF919F91FC
:100D20008F917F916F915F914F913F912F910F9094
:100D30000FBE0F901F901895883109F486C080323D
:100D400051F780932C0214C0803409F49BC040F406
:100D50008033B9F38833F9F680932C0285ECAEC06A
:100D6000803509F483C0883509F494C0883499F635
:100D70000E948B05D0CF883909F48AC038F58837AE
:100D800029F050F4883611F0803729F683E08093FB
:100D90002E021092070255C0883809F479C08039B4
:100DA00019F0803809F0B7CF80910702803208F03F
:100DB0006FC0E091070281E08E0F8093070280915F
:100DC000BB00F0E0E951FE4F80833BC0803B39F02F
:100DD000D0F4803A09F477C0883A09F09CCF84E0D7
:100DE00080932E021092E6011092E501F0E0E0E01F
:100DF00009958091E50181110FC081E08093E501A3
:100E00001092C50109C0803C09F4A8CF883C09F4C0
:100E1000A5CF883B09F07FCFE091E60181E08E0FFE
:100E20008093E601F0E0EB53FE4F80818093BB009E
:100E30009091E6018091E50129C08091090280939B
:100E4000BB0085EC8093BC0066CF90912B02809113
:100E50002A02981758F5E0912B0281E08E0F8093BB
:100E60002B02F0E0E65FFD4F8081E9CFE0912B029D
:100E700081E08E0F80932B028091BB00F0E0E65F53
:100E8000FD4F808390912B0280912A029817C8F21F
:100E900085E8D8CFE0912B0281E08E0F80932B0262
:100EA0008091BB00F0E0E65FFD4F808380912D02D2
:100EB00081115ECF81E08093080284EA8093BC00B8
:100EC00010922E0228CF85EC8093BC0010922E0247
:100ED00080910702803230F4E0910702F0E0E9519E
:100EE000FE4F10826091070270E087EE91E0F0E023
:100EF000E0E00995109207020ECF10922C0238CF35
:100F00001F920F920FB60F9211242F933F934F937E
:100F10005F936F937F938F939F93AF93BF93CF9381
:100F2000DF93EF93FF938091C201C0913C03D0E027
:100F300087FF24C010928500109284008091C20126
:100F40008F5F8093C2018091C201082E000C990B23
:100F50008C179D0724F48091C2018C30C4F18091DC
:100F6000840090918500049680349C4908F47AC0EE
:100F70008091840090918500049676C08091C20192
:100F8000082E000C990B8C179D07C4F6E091C20146
:100F90008E2FEE0F990BFC01EE0FFF1FE80FF91FCC
:100FA000E85EFC4F808186FFC9CFE091C2018E2FA1
:100FB000EE0F990BFC01EE0FFF1FE80FF91FE85E23
:100FC000FC4F808160E08F730E944301B7CF209176
:100FD000840030918500E091C2018E2FEE0F990BB5
:100FE000FC01EE0FFF1FE80FF91FE85EFC4F818147
:100FF0009281820F931F9093890080938800E091E3
:10100000C2018E2FEE0F990BFC01EE0FFF1FE80FB0
:10101000F91FE85EFC4F808186FF11C0E091C2019C
:101020008E2FEE0F990BFC01EE0FFF1FE80FF91F3B
:10103000E85EFC4F808161E08F730E944301FF9165
:10104000EF91DF91CF91BF91AF919F918F917F9160
:101050006F915F914F913F912F910F900FBE0F9025
:101060001F90189580E49CE99093890080938800F4
:101070008FEF8093C201E3CF10927202109271023F
:1010800088EE93E0A0E0B0E0809373029093740246
:10109000A0937502B09376022CE131E03093700298
:1010A00020936F0225EC30E030937C0220937B028A
:1010B00024EC30E030937E0220937D0220EC30E07F
:1010C0003093800220937F0221EC30E03093820243
:1010D0002093810222EC30E030938402209383023B
:1010E00026EC30E03093860220938502109288022D
:1010F0001092890210928A0210928B0210920F03B2
:1011000010920E038093100390931103A093120387
:10111000B09313038EE291E090930D0380930C0340
:10112000109243031092420380E491E090934103B4
:101130008093400387E28093440384E180934903D2
:1011400084E080934A0310924B0380913C038C30DF
:1011500098F491E0980F90933C0380933D0390E0C6
:10116000FC01EE0FFF1FE80FF91FE85EFC4F88EB54
:101170009BE09283818308958FEF80933D030895D0
:10118000789484B5826084BD84B5816084BD85B562
:10119000826085BD85B5816085BD80916E0081606E
:1011A00080936E0010928100809181008260809314
:1011B0008100809181008160809381008091800016
:1011C0008160809380008091B10084608093B10041
:1011D0008091B00081608093B00080917A0084603B
:1011E00080937A0080917A00826080937A00809167
:1011F0007A00816080937A0080917A008068809381
:101200007A001092C100E0917F02F091800282E0AA
:101210008083E0917B02F0917C021082E0917D025C
:10122000F0917E028FEC808310928702E09183021E
:10123000F091840286E08083E0918102F091820245
:10124000808180618083E0918102F09182028081BF
:1012500088608083E0918102F091820280818068C1
:101260008083E0918102F091820280818F7D808372
:1012700022E030E02330310511F1F901E656FF4F4D
:101280004491F901EA57FF4F84918823C1F090E01F
:10129000880F991FFC01E859FF4FC591D491FC01BB
:1012A000EE58FF4FA591B4919FB7F8948881E42F31
:1012B000E0958E2388838C91E823EC939FBF2F5F6A
:1012C0003F4F2B303105B1F680913D038C3008F053
:1012D00068C0EDE9F0E02491E9E8F0E0849188232A
:1012E00099F090E0880F991FFC01E859FF4FA591F4
:1012F000B491FC01EE58FF4F859194918FB7F8940B
:10130000EC91E22BEC938FBF80913D03282F30E0CE
:10131000F901EE0FFF1FE20FF31FE85EFC4F908113
:10132000907C9360908310923E0310923F032CE0D8
:10133000622F0E94B20B829FB001112430E020E0A6
:10134000AB01420F531FFA01EE0FFF1FE40FF51F11
:10135000E85EFC4F908196FD16C02F5F3F4F2C300A
:10136000310571F781110FC01092800082E08093E7
:1013700081001092850010928400B19A80916F00D4
:10138000826080936F00E0913D038E2F90E0FC011E
:10139000EE0FFF1FE80FF91FE85EFC4F80818064AD
:1013A00080838AE590E00E948C00809145038860EC
:1013B0008093450314E01093480362E370E080E0FB
:1013C00090E00E94960160914B0380E493E00E94BC
:1013D000A60368EE73E080E090E00E94960160E36F
:1013E00080E493E00E940505CBE4D6E4CE010197AA
:1013F000F1F760E380E493E00E9405052197F1F79F
:1014000060E380E493E00E94050583E592E00197A4
:10141000F1F760E280E493E00E94050560914503E6
:10142000606240E080E493E00E941E051093460352
:1014300040E06CE080E493E00E941E0540E061E043
:1014400080E493E00E941E05CBE3DFE1CE0101972B
:10145000F1F782E08093470340E066E080E493E0A8
:101460000E941E0540E062E080E493E00E941E05B9
:10147000CE010197F1F760E080E00E94350588E435
:1014800091E00E94F80461E080E00E9435058EE55D
:1014900091E00E94F80462E080E00E94350585E753
:1014A00091E00E94F80463E080E00E9435058AE83C
:1014B00091E00E94F80460ED77E080E090E00E9407
:1014C000960140E061E080E493E00E941E052197D0
:1014D000F1F70E94900486E692E0EAE5F2E030E05F
:1014E00020E041915191240F351F8E179F07C9F7B6
:1014F00086E090E0821B930B9093010180930001A2
:1015000037E0C32E00E010E0DD24D3940E94900465
:1015100060E080E00E94350580EA91E00E94F804D6
:101520006091000170910101072E000C880B990B4E
:1015300097FF77C00E946F0580E791E00E94F80452
:101540008AE5A82E82E0B82E412C512C320143941A
:10155000EE24E394F12CD0E0C0E06E2DC0FF65C016
:101560008AE00E943505EFEFEE1AFE0A80EB91E06B
:101570000E94F80421964AE0C301B2010E94AA0425
:10158000F501219131915F01C29EC001C39E900D72
:101590001124865F9E4F0E94F804FFEF4F1A5F0AE6
:1015A0006F0A7F0AC630D105C1F682E00E941A0197
:1015B000892BD1F480915902811116C0C09100018C
:1015C000D09101011C161D06A4F5D09259028091FC
:1015D0005802811109C084EB90E00E948C00219791
:1015E000D0930101C093000184E00E941A01209170
:1015F0005902892B69F1222309F43FC080915802D6
:101600008823D9F168EE73E080E090E00E949601B3
:101610008AE590E00E948C001092590210925802C4
:101620002CC04AE00E94AA0487CF80E00E943505C2
:101630009DCF60E080E00E94350582EB91E00E9442
:10164000F8046CED75E080E090E00E949601CCCF4C
:10165000809158028111CFCFD09258022111CECF64
:1016600084EB90E00E948C00809100019091010138
:101670000196909301018093000161E070E080E0A9
:1016800090E00E9496010115110509F43FCF0E94D8
:101690003202882309F43ACF0E94000037CF052E8A
:1016A00097FB1EF400940E94660B57FD07D00E9422
:1016B000810B07FC03D04EF40C94660B50954095BB
:1016C000309521953F4F4F4F5F4F089590958095EE
:1016D000709561957F4F8F4F9F4F08950E94A30B88
:1016E000A59F900DB49F900DA49F800D911D112476
:1016F0000895B7FF0C946E0B0E946E0B821B930B28
:101700000895A1E21A2EAA1BBB1BFD010DC0AA1F42
:10171000BB1FEE1FFF1FA217B307E407F50720F05A
:10172000A21BB30BE40BF50B661F771F881F991FD5
:101730001A9469F760957095809590959B01AC011E
:10174000BD01CF010895A29FB001B39FC001A39F27
:10175000700D811D1124911DB29F700D811D1124EA
:10176000911D0895991B79E004C0991F961708F000
:10177000961B881F7A95C9F780950895EE0FFF1F75
:0C1780000590F491E02D0994F894FFCF3F
:10178C00060000004000140054003A4C6962726577
:10179C00003A4F6375702000000000006802C80119
:1017AC00F501B502260204021802000000007703BE
:1017BC004A038D043C03430340033D030000000037
:1017CC006905C8018D04D502202020204573746161
:1017DC0063696F6E616D69656E746F2020002020E7
:1017EC0020202020204175746F6D617469636F2017
:1017FC002020202000202020202020205465636EF3
:10180C0069636173202020202000202020202020CC
:10181C00204469676974616C657320202020200066
:10182C0045737420446973706F6E69626C653A001D
:10183C0053002045737420436F6D706C65746F2179
:02184C0020007A
:00000001FF
